{
  "contractName": "Operation",
  "abi": [
    {
      "inputs": [],
      "name": "result",
      "outputs": [
        {
          "internalType": "int256",
          "name": "",
          "type": "int256"
        }
      ],
      "stateMutability": "view",
      "type": "function",
      "constant": true
    },
    {
      "inputs": [
        {
          "internalType": "int256",
          "name": "x",
          "type": "int256"
        },
        {
          "internalType": "int256",
          "name": "y",
          "type": "int256"
        }
      ],
      "name": "add",
      "outputs": [],
      "stateMutability": "nonpayable",
      "type": "function"
    },
    {
      "inputs": [
        {
          "internalType": "int256",
          "name": "x",
          "type": "int256"
        },
        {
          "internalType": "int256",
          "name": "y",
          "type": "int256"
        }
      ],
      "name": "sub",
      "outputs": [],
      "stateMutability": "nonpayable",
      "type": "function"
    }
  ],
  "bytecode": "0x60806040526000805534801561001457600080fd5b50610300806100246000396000f3fe608060405234801561001057600080fd5b50600436106100415760003560e01c80636537214714610046578063a5f3c23b14610064578063adefc37b14610080575b600080fd5b61004e61009c565b60405161005b91906100e7565b60405180910390f35b61007e60048036038101906100799190610133565b6100a2565b005b61009a60048036038101906100959190610133565b6100b8565b005b60005481565b80826100ae91906101a2565b6000819055505050565b80826100c49190610236565b6000819055505050565b6000819050919050565b6100e1816100ce565b82525050565b60006020820190506100fc60008301846100d8565b92915050565b600080fd5b610110816100ce565b811461011b57600080fd5b50565b60008135905061012d81610107565b92915050565b6000806040838503121561014a57610149610102565b5b60006101588582860161011e565b92505060206101698582860161011e565b9150509250929050565b7f4e487b7100000000000000000000000000000000000000000000000000000000600052601160045260246000fd5b60006101ad826100ce565b91506101b8836100ce565b9250817f7fffffffffffffffffffffffffffffffffffffffffffffffffffffffffffffff038313600083121516156101f3576101f2610173565b5b817f800000000000000000000000000000000000000000000000000000000000000003831260008312161561022b5761022a610173565b5b828201905092915050565b6000610241826100ce565b915061024c836100ce565b9250827f80000000000000000000000000000000000000000000000000000000000000000182126000841215161561028757610286610173565b5b827f7fffffffffffffffffffffffffffffffffffffffffffffffffffffffffffffff0182136000841216156102bf576102be610173565b5b82820390509291505056fea26469706673582212205444cd848c4473cbcfe17ad323faf160ffdd104bdb05db5868c1e723181d451c64736f6c634300080d0033",
  "immutableReferences": {},
  "source": "// SPDX-License-Identifier: MIT\npragma solidity ^0.8.13;\n\ncontract Operation {\n  int public result = 0;\n  \n  function add (int x, int y) public {\n    result = x + y;\n  }\n\n  function sub (int x, int y) public {\n    result = x - y;\n  }\n}",
  "sourcePath": "/Users/kubershahi/Documents/GitHub/ml-data/bc/contracts/Operation.sol",
  "compiler": {
    "name": "solc",
    "version": "0.8.13+commit.abaa5c0e.Emscripten.clang"
  },
  "schemaVersion": "3.4.7",
  "updatedAt": "2022-04-16T14:11:21.060Z",
  "networkType": "ethereum",
  "devdoc": {
    "kind": "dev",
    "methods": {},
    "version": 1
  },
  "userdoc": {
    "kind": "user",
    "methods": {},
    "version": 1
  }
}